{
  "_format": "hh-sol-artifact-1",
  "contractName": "EduChain",
  "sourceName": "contracts/EduСhain.sol",
  "abi": [
    {
      "inputs": [],
      "stateMutability": "nonpayable",
      "type": "constructor"
    },
    {
      "anonymous": false,
      "inputs": [
        {
          "indexed": true,
          "internalType": "string",
          "name": "studentId",
          "type": "string"
        },
        {
          "indexed": false,
          "internalType": "string",
          "name": "courseName",
          "type": "string"
        },
        {
          "indexed": false,
          "internalType": "uint256",
          "name": "grade",
          "type": "uint256"
        }
      ],
      "name": "AchievementAdded",
      "type": "event"
    },
    {
      "inputs": [
        {
          "internalType": "uint256",
          "name": "",
          "type": "uint256"
        }
      ],
      "name": "achievements",
      "outputs": [
        {
          "internalType": "string",
          "name": "studentId",
          "type": "string"
        },
        {
          "internalType": "string",
          "name": "courseName",
          "type": "string"
        },
        {
          "internalType": "uint256",
          "name": "grade",
          "type": "uint256"
        },
        {
          "internalType": "address",
          "name": "university",
          "type": "address"
        }
      ],
      "stateMutability": "view",
      "type": "function"
    },
    {
      "inputs": [
        {
          "internalType": "string",
          "name": "_studentId",
          "type": "string"
        },
        {
          "internalType": "string",
          "name": "_courseName",
          "type": "string"
        },
        {
          "internalType": "uint256",
          "name": "_grade",
          "type": "uint256"
        }
      ],
      "name": "addAchievement",
      "outputs": [],
      "stateMutability": "nonpayable",
      "type": "function"
    },
    {
      "inputs": [
        {
          "internalType": "address",
          "name": "_university",
          "type": "address"
        }
      ],
      "name": "addUniversity",
      "outputs": [],
      "stateMutability": "nonpayable",
      "type": "function"
    },
    {
      "inputs": [],
      "name": "admin",
      "outputs": [
        {
          "internalType": "address",
          "name": "",
          "type": "address"
        }
      ],
      "stateMutability": "view",
      "type": "function"
    },
    {
      "inputs": [
        {
          "internalType": "string",
          "name": "_studentId",
          "type": "string"
        }
      ],
      "name": "getAchievementsByStudent",
      "outputs": [
        {
          "components": [
            {
              "internalType": "string",
              "name": "studentId",
              "type": "string"
            },
            {
              "internalType": "string",
              "name": "courseName",
              "type": "string"
            },
            {
              "internalType": "uint256",
              "name": "grade",
              "type": "uint256"
            },
            {
              "internalType": "address",
              "name": "university",
              "type": "address"
            }
          ],
          "internalType": "struct EduChain.Achievement[]",
          "name": "",
          "type": "tuple[]"
        }
      ],
      "stateMutability": "view",
      "type": "function"
    },
    {
      "inputs": [
        {
          "internalType": "address",
          "name": "_university",
          "type": "address"
        }
      ],
      "name": "removeUniversity",
      "outputs": [],
      "stateMutability": "nonpayable",
      "type": "function"
    },
    {
      "inputs": [
        {
          "internalType": "address",
          "name": "",
          "type": "address"
        }
      ],
      "name": "universities",
      "outputs": [
        {
          "internalType": "bool",
          "name": "",
          "type": "bool"
        }
      ],
      "stateMutability": "view",
      "type": "function"
    }
  ],
  "bytecode": "0x608060405234801561001057600080fd5b50336000806101000a81548173ffffffffffffffffffffffffffffffffffffffff021916908373ffffffffffffffffffffffffffffffffffffffff1602179055506001600260003373ffffffffffffffffffffffffffffffffffffffff1673ffffffffffffffffffffffffffffffffffffffff16815260200190815260200160002060006101000a81548160ff0219169083151502179055506117c8806100b86000396000f3fe608060405234801561001057600080fd5b506004361061007d5760003560e01c8063875f54491161005b578063875f5449146100ed578063c0a64a801461011d578063f099556014610139578063f851a440146101695761007d565b806327aed72e1461008257806328f54b2f146100b557806339bdf2a1146100d1575b600080fd5b61009c60048036038101906100979190610b0c565b610187565b6040516100ac9493929190610c19565b60405180910390f35b6100cf60048036038101906100ca9190610c98565b6102f7565b005b6100eb60048036038101906100e69190610c98565b61046c565b005b61010760048036038101906101029190610dfa565b610555565b6040516101149190610fd7565b60405180910390f35b61013760048036038101906101329190610ff9565b61087f565b005b610153600480360381019061014e9190610c98565b610a40565b604051610160919061109f565b60405180910390f35b610171610a60565b60405161017e91906110ba565b60405180910390f35b6001818154811061019757600080fd5b90600052602060002090600402016000915090508060000180546101ba90611104565b80601f01602080910402602001604051908101604052809291908181526020018280546101e690611104565b80156102335780601f1061020857610100808354040283529160200191610233565b820191906000526020600020905b81548152906001019060200180831161021657829003601f168201915b50505050509080600101805461024890611104565b80601f016020809104026020016040519081016040528092919081815260200182805461027490611104565b80156102c15780601f10610296576101008083540402835291602001916102c1565b820191906000526020600020905b8154815290600101906020018083116102a457829003601f168201915b5050505050908060020154908060030160009054906101000a900473ffffffffffffffffffffffffffffffffffffffff16905084565b60008054906101000a900473ffffffffffffffffffffffffffffffffffffffff1673ffffffffffffffffffffffffffffffffffffffff163373ffffffffffffffffffffffffffffffffffffffff1614610385576040517f08c379a000000000000000000000000000000000000000000000000000000000815260040161037c906111a7565b60405180910390fd5b600260008273ffffffffffffffffffffffffffffffffffffffff1673ffffffffffffffffffffffffffffffffffffffff16815260200190815260200160002060009054906101000a900460ff16610411576040517f08c379a000000000000000000000000000000000000000000000000000000000815260040161040890611213565b60405180910390fd5b6000600260008373ffffffffffffffffffffffffffffffffffffffff1673ffffffffffffffffffffffffffffffffffffffff16815260200190815260200160002060006101000a81548160ff02191690831515021790555050565b60008054906101000a900473ffffffffffffffffffffffffffffffffffffffff1673ffffffffffffffffffffffffffffffffffffffff163373ffffffffffffffffffffffffffffffffffffffff16146104fa576040517f08c379a00000000000000000000000000000000000000000000000000000000081526004016104f19061127f565b60405180910390fd5b6001600260008373ffffffffffffffffffffffffffffffffffffffff1673ffffffffffffffffffffffffffffffffffffffff16815260200190815260200160002060006101000a81548160ff02191690831515021790555050565b60606000805b6001805490508110156105d1578380519060200120600182815481106105845761058361129f565b5b90600052602060002090600402016000016040516105a29190611371565b6040518091039020036105be5781806105ba906113b7565b9250505b80806105c9906113b7565b91505061055b565b5060008167ffffffffffffffff8111156105ee576105ed610ccf565b5b60405190808252806020026020018201604052801561062757816020015b610614610a84565b81526020019060019003908161060c5790505b5090506000805b600180549050811015610873578580519060200120600182815481106106575761065661129f565b5b90600052602060002090600402016000016040516106759190611371565b60405180910390200361086057600181815481106106965761069561129f565b5b90600052602060002090600402016040518060800160405290816000820180546106bf90611104565b80601f01602080910402602001604051908101604052809291908181526020018280546106eb90611104565b80156107385780601f1061070d57610100808354040283529160200191610738565b820191906000526020600020905b81548152906001019060200180831161071b57829003601f168201915b5050505050815260200160018201805461075190611104565b80601f016020809104026020016040519081016040528092919081815260200182805461077d90611104565b80156107ca5780601f1061079f576101008083540402835291602001916107ca565b820191906000526020600020905b8154815290600101906020018083116107ad57829003601f168201915b50505050508152602001600282015481526020016003820160009054906101000a900473ffffffffffffffffffffffffffffffffffffffff1673ffffffffffffffffffffffffffffffffffffffff1673ffffffffffffffffffffffffffffffffffffffff16815250508383815181106108465761084561129f565b5b6020026020010181905250818061085c906113b7565b9250505b808061086b906113b7565b91505061062e565b50819350505050919050565b600260003373ffffffffffffffffffffffffffffffffffffffff1673ffffffffffffffffffffffffffffffffffffffff16815260200190815260200160002060009054906101000a900460ff1661090b576040517f08c379a000000000000000000000000000000000000000000000000000000000815260040161090290611471565b60405180910390fd5b600160405180608001604052808581526020018481526020018381526020013373ffffffffffffffffffffffffffffffffffffffff1681525090806001815401808255809150506001900390600052602060002090600402016000909190919091506000820151816000019081610982919061163d565b506020820151816001019081610998919061163d565b506040820151816002015560608201518160030160006101000a81548173ffffffffffffffffffffffffffffffffffffffff021916908373ffffffffffffffffffffffffffffffffffffffff1602179055505050826040516109fa919061174b565b60405180910390207f543a107d2cbb2b589fb6c6198a77c3c174d7e30bfa6027578650417380f244498383604051610a33929190611762565b60405180910390a2505050565b60026020528060005260406000206000915054906101000a900460ff1681565b60008054906101000a900473ffffffffffffffffffffffffffffffffffffffff1681565b6040518060800160405280606081526020016060815260200160008152602001600073ffffffffffffffffffffffffffffffffffffffff1681525090565b6000604051905090565b600080fd5b600080fd5b6000819050919050565b610ae981610ad6565b8114610af457600080fd5b50565b600081359050610b0681610ae0565b92915050565b600060208284031215610b2257610b21610acc565b5b6000610b3084828501610af7565b91505092915050565b600081519050919050565b600082825260208201905092915050565b60005b83811015610b73578082015181840152602081019050610b58565b60008484015250505050565b6000601f19601f8301169050919050565b6000610b9b82610b39565b610ba58185610b44565b9350610bb5818560208601610b55565b610bbe81610b7f565b840191505092915050565b610bd281610ad6565b82525050565b600073ffffffffffffffffffffffffffffffffffffffff82169050919050565b6000610c0382610bd8565b9050919050565b610c1381610bf8565b82525050565b60006080820190508181036000830152610c338187610b90565b90508181036020830152610c478186610b90565b9050610c566040830185610bc9565b610c636060830184610c0a565b95945050505050565b610c7581610bf8565b8114610c8057600080fd5b50565b600081359050610c9281610c6c565b92915050565b600060208284031215610cae57610cad610acc565b5b6000610cbc84828501610c83565b91505092915050565b600080fd5b600080fd5b7f4e487b7100000000000000000000000000000000000000000000000000000000600052604160045260246000fd5b610d0782610b7f565b810181811067ffffffffffffffff82111715610d2657610d25610ccf565b5b80604052505050565b6000610d39610ac2565b9050610d458282610cfe565b919050565b600067ffffffffffffffff821115610d6557610d64610ccf565b5b610d6e82610b7f565b9050602081019050919050565b82818337600083830152505050565b6000610d9d610d9884610d4a565b610d2f565b905082815260208101848484011115610db957610db8610cca565b5b610dc4848285610d7b565b509392505050565b600082601f830112610de157610de0610cc5565b5b8135610df1848260208601610d8a565b91505092915050565b600060208284031215610e1057610e0f610acc565b5b600082013567ffffffffffffffff811115610e2e57610e2d610ad1565b5b610e3a84828501610dcc565b91505092915050565b600081519050919050565b600082825260208201905092915050565b6000819050602082019050919050565b600082825260208201905092915050565b6000610e8b82610b39565b610e958185610e6f565b9350610ea5818560208601610b55565b610eae81610b7f565b840191505092915050565b610ec281610ad6565b82525050565b610ed181610bf8565b82525050565b60006080830160008301518482036000860152610ef48282610e80565b91505060208301518482036020860152610f0e8282610e80565b9150506040830151610f236040860182610eb9565b506060830151610f366060860182610ec8565b508091505092915050565b6000610f4d8383610ed7565b905092915050565b6000602082019050919050565b6000610f6d82610e43565b610f778185610e4e565b935083602082028501610f8985610e5f565b8060005b85811015610fc55784840389528151610fa68582610f41565b9450610fb183610f55565b925060208a01995050600181019050610f8d565b50829750879550505050505092915050565b60006020820190508181036000830152610ff18184610f62565b905092915050565b60008060006060848603121561101257611011610acc565b5b600084013567ffffffffffffffff8111156110305761102f610ad1565b5b61103c86828701610dcc565b935050602084013567ffffffffffffffff81111561105d5761105c610ad1565b5b61106986828701610dcc565b925050604061107a86828701610af7565b9150509250925092565b60008115159050919050565b61109981611084565b82525050565b60006020820190506110b46000830184611090565b92915050565b60006020820190506110cf6000830184610c0a565b92915050565b7f4e487b7100000000000000000000000000000000000000000000000000000000600052602260045260246000fd5b6000600282049050600182168061111c57607f821691505b60208210810361112f5761112e6110d5565b5b50919050565b7f4f6e6c792061646d696e2063616e2072656d6f766520756e697665727369746960008201527f6573000000000000000000000000000000000000000000000000000000000000602082015250565b6000611191602283610b44565b915061119c82611135565b604082019050919050565b600060208201905081810360008301526111c081611184565b9050919050565b7f556e6976657273697479206e6f74207265676973746572656400000000000000600082015250565b60006111fd601983610b44565b9150611208826111c7565b602082019050919050565b6000602082019050818103600083015261122c816111f0565b9050919050565b7f4f6e6c792061646d696e2063616e2061646420756e6976657273697469657300600082015250565b6000611269601f83610b44565b915061127482611233565b602082019050919050565b600060208201905081810360008301526112988161125c565b9050919050565b7f4e487b7100000000000000000000000000000000000000000000000000000000600052603260045260246000fd5b600081905092915050565b60008190508160005260206000209050919050565b600081546112fb81611104565b61130581866112ce565b94506001821660008114611320576001811461133557611368565b60ff1983168652811515820286019350611368565b61133e856112d9565b60005b8381101561136057815481890152600182019150602081019050611341565b838801955050505b50505092915050565b600061137d82846112ee565b915081905092915050565b7f4e487b7100000000000000000000000000000000000000000000000000000000600052601160045260246000fd5b60006113c282610ad6565b91507fffffffffffffffffffffffffffffffffffffffffffffffffffffffffffffffff82036113f4576113f3611388565b5b600182019050919050565b7f4f6e6c7920617574686f72697a656420756e697665727369746965732063616e60008201527f2061646420646174610000000000000000000000000000000000000000000000602082015250565b600061145b602983610b44565b9150611466826113ff565b604082019050919050565b6000602082019050818103600083015261148a8161144e565b9050919050565b60008190508160005260206000209050919050565b60006020601f8301049050919050565b600082821b905092915050565b6000600883026114f37fffffffffffffffffffffffffffffffffffffffffffffffffffffffffffffffff826114b6565b6114fd86836114b6565b95508019841693508086168417925050509392505050565b6000819050919050565b600061153a61153561153084610ad6565b611515565b610ad6565b9050919050565b6000819050919050565b6115548361151f565b61156861156082611541565b8484546114c3565b825550505050565b600090565b61157d611570565b61158881848461154b565b505050565b5b818110156115ac576115a1600082611575565b60018101905061158e565b5050565b601f8211156115f1576115c281611491565b6115cb846114a6565b810160208510156115da578190505b6115ee6115e6856114a6565b83018261158d565b50505b505050565b600082821c905092915050565b6000611614600019846008026115f6565b1980831691505092915050565b600061162d8383611603565b9150826002028217905092915050565b61164682610b39565b67ffffffffffffffff81111561165f5761165e610ccf565b5b6116698254611104565b6116748282856115b0565b600060209050601f8311600181146116a75760008415611695578287015190505b61169f8582611621565b865550611707565b601f1984166116b586611491565b60005b828110156116dd578489015182556001820191506020850194506020810190506116b8565b868310156116fa57848901516116f6601f891682611603565b8355505b6001600288020188555050505b505050505050565b600081905092915050565b600061172582610b39565b61172f818561170f565b935061173f818560208601610b55565b80840191505092915050565b6000611757828461171a565b915081905092915050565b6000604082019050818103600083015261177c8185610b90565b905061178b6020830184610bc9565b939250505056fea2646970667358221220c0dd412900d12c24525383154655066799b2f3b21a3b212dfc6e81e94951c19964736f6c63430008140033",
  "linkReferences": {},
  "deployedLinkReferences": {}
}