{
  "_format": "hh-sol-artifact-1",
  "contractName": "EduChain",
  "sourceName": "contracts/EduСhain.sol",
  "abi": [
    {
      "inputs": [],
      "stateMutability": "nonpayable",
      "type": "constructor"
    },
    {
      "anonymous": false,
      "inputs": [
        {
          "indexed": true,
          "internalType": "string",
          "name": "studentId",
          "type": "string"
        },
        {
          "indexed": false,
          "internalType": "string",
          "name": "courseName",
          "type": "string"
        },
        {
          "indexed": false,
          "internalType": "uint256",
          "name": "grade",
          "type": "uint256"
        }
      ],
      "name": "AchievementAdded",
      "type": "event"
    },
    {
      "inputs": [
        {
          "internalType": "uint256",
          "name": "",
          "type": "uint256"
        }
      ],
      "name": "achievements",
      "outputs": [
        {
          "internalType": "string",
          "name": "studentId",
          "type": "string"
        },
        {
          "internalType": "string",
          "name": "courseName",
          "type": "string"
        },
        {
          "internalType": "uint256",
          "name": "grade",
          "type": "uint256"
        },
        {
          "internalType": "address",
          "name": "university",
          "type": "address"
        }
      ],
      "stateMutability": "view",
      "type": "function"
    },
    {
      "inputs": [
        {
          "internalType": "string",
          "name": "_studentId",
          "type": "string"
        },
        {
          "internalType": "string",
          "name": "_courseName",
          "type": "string"
        },
        {
          "internalType": "uint256",
          "name": "_grade",
          "type": "uint256"
        }
      ],
      "name": "addAchievement",
      "outputs": [],
      "stateMutability": "nonpayable",
      "type": "function"
    },
    {
      "inputs": [
        {
          "internalType": "address",
          "name": "_university",
          "type": "address"
        }
      ],
      "name": "addUniversity",
      "outputs": [],
      "stateMutability": "nonpayable",
      "type": "function"
    },
    {
      "inputs": [],
      "name": "admin",
      "outputs": [
        {
          "internalType": "address",
          "name": "",
          "type": "address"
        }
      ],
      "stateMutability": "view",
      "type": "function"
    },
    {
      "inputs": [
        {
          "internalType": "string",
          "name": "_studentId",
          "type": "string"
        }
      ],
      "name": "getAchievementsByStudent",
      "outputs": [
        {
          "components": [
            {
              "internalType": "string",
              "name": "studentId",
              "type": "string"
            },
            {
              "internalType": "string",
              "name": "courseName",
              "type": "string"
            },
            {
              "internalType": "uint256",
              "name": "grade",
              "type": "uint256"
            },
            {
              "internalType": "address",
              "name": "university",
              "type": "address"
            }
          ],
          "internalType": "struct EduChain.Achievement[]",
          "name": "",
          "type": "tuple[]"
        }
      ],
      "stateMutability": "view",
      "type": "function"
    },
    {
      "inputs": [
        {
          "internalType": "address",
          "name": "",
          "type": "address"
        }
      ],
      "name": "universities",
      "outputs": [
        {
          "internalType": "bool",
          "name": "",
          "type": "bool"
        }
      ],
      "stateMutability": "view",
      "type": "function"
    }
  ],
  "bytecode": "0x608060405234801561001057600080fd5b50336000806101000a81548173ffffffffffffffffffffffffffffffffffffffff021916908373ffffffffffffffffffffffffffffffffffffffff1602179055506001600260003373ffffffffffffffffffffffffffffffffffffffff1673ffffffffffffffffffffffffffffffffffffffff16815260200190815260200160002060006101000a81548160ff02191690831515021790555061151e806100b86000396000f3fe608060405234801561001057600080fd5b50600436106100625760003560e01c806327aed72e1461006757806339bdf2a11461009a578063875f5449146100b6578063c0a64a80146100e6578063f099556014610102578063f851a44014610132575b600080fd5b610081600480360381019061007c9190610960565b610150565b6040516100919493929190610a6d565b60405180910390f35b6100b460048036038101906100af9190610aec565b6102c0565b005b6100d060048036038101906100cb9190610c4e565b6103a9565b6040516100dd9190610e2b565b60405180910390f35b61010060048036038101906100fb9190610e4d565b6106d3565b005b61011c60048036038101906101179190610aec565b610894565b6040516101299190610ef3565b60405180910390f35b61013a6108b4565b6040516101479190610f0e565b60405180910390f35b6001818154811061016057600080fd5b906000526020600020906004020160009150905080600001805461018390610f58565b80601f01602080910402602001604051908101604052809291908181526020018280546101af90610f58565b80156101fc5780601f106101d1576101008083540402835291602001916101fc565b820191906000526020600020905b8154815290600101906020018083116101df57829003601f168201915b50505050509080600101805461021190610f58565b80601f016020809104026020016040519081016040528092919081815260200182805461023d90610f58565b801561028a5780601f1061025f5761010080835404028352916020019161028a565b820191906000526020600020905b81548152906001019060200180831161026d57829003601f168201915b5050505050908060020154908060030160009054906101000a900473ffffffffffffffffffffffffffffffffffffffff16905084565b60008054906101000a900473ffffffffffffffffffffffffffffffffffffffff1673ffffffffffffffffffffffffffffffffffffffff163373ffffffffffffffffffffffffffffffffffffffff161461034e576040517f08c379a000000000000000000000000000000000000000000000000000000000815260040161034590610fd5565b60405180910390fd5b6001600260008373ffffffffffffffffffffffffffffffffffffffff1673ffffffffffffffffffffffffffffffffffffffff16815260200190815260200160002060006101000a81548160ff02191690831515021790555050565b60606000805b600180549050811015610425578380519060200120600182815481106103d8576103d7610ff5565b5b90600052602060002090600402016000016040516103f691906110c7565b60405180910390200361041257818061040e9061110d565b9250505b808061041d9061110d565b9150506103af565b5060008167ffffffffffffffff81111561044257610441610b23565b5b60405190808252806020026020018201604052801561047b57816020015b6104686108d8565b8152602001906001900390816104605790505b5090506000805b6001805490508110156106c7578580519060200120600182815481106104ab576104aa610ff5565b5b90600052602060002090600402016000016040516104c991906110c7565b6040518091039020036106b457600181815481106104ea576104e9610ff5565b5b906000526020600020906004020160405180608001604052908160008201805461051390610f58565b80601f016020809104026020016040519081016040528092919081815260200182805461053f90610f58565b801561058c5780601f106105615761010080835404028352916020019161058c565b820191906000526020600020905b81548152906001019060200180831161056f57829003601f168201915b505050505081526020016001820180546105a590610f58565b80601f01602080910402602001604051908101604052809291908181526020018280546105d190610f58565b801561061e5780601f106105f35761010080835404028352916020019161061e565b820191906000526020600020905b81548152906001019060200180831161060157829003601f168201915b50505050508152602001600282015481526020016003820160009054906101000a900473ffffffffffffffffffffffffffffffffffffffff1673ffffffffffffffffffffffffffffffffffffffff1673ffffffffffffffffffffffffffffffffffffffff168152505083838151811061069a57610699610ff5565b5b602002602001018190525081806106b09061110d565b9250505b80806106bf9061110d565b915050610482565b50819350505050919050565b600260003373ffffffffffffffffffffffffffffffffffffffff1673ffffffffffffffffffffffffffffffffffffffff16815260200190815260200160002060009054906101000a900460ff1661075f576040517f08c379a0000000000000000000000000000000000000000000000000000000008152600401610756906111c7565b60405180910390fd5b600160405180608001604052808581526020018481526020018381526020013373ffffffffffffffffffffffffffffffffffffffff16815250908060018154018082558091505060019003906000526020600020906004020160009091909190915060008201518160000190816107d69190611393565b5060208201518160010190816107ec9190611393565b506040820151816002015560608201518160030160006101000a81548173ffffffffffffffffffffffffffffffffffffffff021916908373ffffffffffffffffffffffffffffffffffffffff16021790555050508260405161084e91906114a1565b60405180910390207f543a107d2cbb2b589fb6c6198a77c3c174d7e30bfa6027578650417380f2444983836040516108879291906114b8565b60405180910390a2505050565b60026020528060005260406000206000915054906101000a900460ff1681565b60008054906101000a900473ffffffffffffffffffffffffffffffffffffffff1681565b6040518060800160405280606081526020016060815260200160008152602001600073ffffffffffffffffffffffffffffffffffffffff1681525090565b6000604051905090565b600080fd5b600080fd5b6000819050919050565b61093d8161092a565b811461094857600080fd5b50565b60008135905061095a81610934565b92915050565b60006020828403121561097657610975610920565b5b60006109848482850161094b565b91505092915050565b600081519050919050565b600082825260208201905092915050565b60005b838110156109c75780820151818401526020810190506109ac565b60008484015250505050565b6000601f19601f8301169050919050565b60006109ef8261098d565b6109f98185610998565b9350610a098185602086016109a9565b610a12816109d3565b840191505092915050565b610a268161092a565b82525050565b600073ffffffffffffffffffffffffffffffffffffffff82169050919050565b6000610a5782610a2c565b9050919050565b610a6781610a4c565b82525050565b60006080820190508181036000830152610a8781876109e4565b90508181036020830152610a9b81866109e4565b9050610aaa6040830185610a1d565b610ab76060830184610a5e565b95945050505050565b610ac981610a4c565b8114610ad457600080fd5b50565b600081359050610ae681610ac0565b92915050565b600060208284031215610b0257610b01610920565b5b6000610b1084828501610ad7565b91505092915050565b600080fd5b600080fd5b7f4e487b7100000000000000000000000000000000000000000000000000000000600052604160045260246000fd5b610b5b826109d3565b810181811067ffffffffffffffff82111715610b7a57610b79610b23565b5b80604052505050565b6000610b8d610916565b9050610b998282610b52565b919050565b600067ffffffffffffffff821115610bb957610bb8610b23565b5b610bc2826109d3565b9050602081019050919050565b82818337600083830152505050565b6000610bf1610bec84610b9e565b610b83565b905082815260208101848484011115610c0d57610c0c610b1e565b5b610c18848285610bcf565b509392505050565b600082601f830112610c3557610c34610b19565b5b8135610c45848260208601610bde565b91505092915050565b600060208284031215610c6457610c63610920565b5b600082013567ffffffffffffffff811115610c8257610c81610925565b5b610c8e84828501610c20565b91505092915050565b600081519050919050565b600082825260208201905092915050565b6000819050602082019050919050565b600082825260208201905092915050565b6000610cdf8261098d565b610ce98185610cc3565b9350610cf98185602086016109a9565b610d02816109d3565b840191505092915050565b610d168161092a565b82525050565b610d2581610a4c565b82525050565b60006080830160008301518482036000860152610d488282610cd4565b91505060208301518482036020860152610d628282610cd4565b9150506040830151610d776040860182610d0d565b506060830151610d8a6060860182610d1c565b508091505092915050565b6000610da18383610d2b565b905092915050565b6000602082019050919050565b6000610dc182610c97565b610dcb8185610ca2565b935083602082028501610ddd85610cb3565b8060005b85811015610e195784840389528151610dfa8582610d95565b9450610e0583610da9565b925060208a01995050600181019050610de1565b50829750879550505050505092915050565b60006020820190508181036000830152610e458184610db6565b905092915050565b600080600060608486031215610e6657610e65610920565b5b600084013567ffffffffffffffff811115610e8457610e83610925565b5b610e9086828701610c20565b935050602084013567ffffffffffffffff811115610eb157610eb0610925565b5b610ebd86828701610c20565b9250506040610ece8682870161094b565b9150509250925092565b60008115159050919050565b610eed81610ed8565b82525050565b6000602082019050610f086000830184610ee4565b92915050565b6000602082019050610f236000830184610a5e565b92915050565b7f4e487b7100000000000000000000000000000000000000000000000000000000600052602260045260246000fd5b60006002820490506001821680610f7057607f821691505b602082108103610f8357610f82610f29565b5b50919050565b7f4f6e6c792061646d696e2063616e2061646420756e6976657273697469657300600082015250565b6000610fbf601f83610998565b9150610fca82610f89565b602082019050919050565b60006020820190508181036000830152610fee81610fb2565b9050919050565b7f4e487b7100000000000000000000000000000000000000000000000000000000600052603260045260246000fd5b600081905092915050565b60008190508160005260206000209050919050565b6000815461105181610f58565b61105b8186611024565b94506001821660008114611076576001811461108b576110be565b60ff19831686528115158202860193506110be565b6110948561102f565b60005b838110156110b657815481890152600182019150602081019050611097565b838801955050505b50505092915050565b60006110d38284611044565b915081905092915050565b7f4e487b7100000000000000000000000000000000000000000000000000000000600052601160045260246000fd5b60006111188261092a565b91507fffffffffffffffffffffffffffffffffffffffffffffffffffffffffffffffff820361114a576111496110de565b5b600182019050919050565b7f4f6e6c7920617574686f72697a656420756e697665727369746965732063616e60008201527f2061646420646174610000000000000000000000000000000000000000000000602082015250565b60006111b1602983610998565b91506111bc82611155565b604082019050919050565b600060208201905081810360008301526111e0816111a4565b9050919050565b60008190508160005260206000209050919050565b60006020601f8301049050919050565b600082821b905092915050565b6000600883026112497fffffffffffffffffffffffffffffffffffffffffffffffffffffffffffffffff8261120c565b611253868361120c565b95508019841693508086168417925050509392505050565b6000819050919050565b600061129061128b6112868461092a565b61126b565b61092a565b9050919050565b6000819050919050565b6112aa83611275565b6112be6112b682611297565b848454611219565b825550505050565b600090565b6112d36112c6565b6112de8184846112a1565b505050565b5b81811015611302576112f76000826112cb565b6001810190506112e4565b5050565b601f82111561134757611318816111e7565b611321846111fc565b81016020851015611330578190505b61134461133c856111fc565b8301826112e3565b50505b505050565b600082821c905092915050565b600061136a6000198460080261134c565b1980831691505092915050565b60006113838383611359565b9150826002028217905092915050565b61139c8261098d565b67ffffffffffffffff8111156113b5576113b4610b23565b5b6113bf8254610f58565b6113ca828285611306565b600060209050601f8311600181146113fd57600084156113eb578287015190505b6113f58582611377565b86555061145d565b601f19841661140b866111e7565b60005b828110156114335784890151825560018201915060208501945060208101905061140e565b86831015611450578489015161144c601f891682611359565b8355505b6001600288020188555050505b505050505050565b600081905092915050565b600061147b8261098d565b6114858185611465565b93506114958185602086016109a9565b80840191505092915050565b60006114ad8284611470565b915081905092915050565b600060408201905081810360008301526114d281856109e4565b90506114e16020830184610a1d565b939250505056fea26469706673582212204220422268dfe85d59c26000f34bbe37649715202efe9c0673ec76d807d7c09e64736f6c63430008140033",
  "linkReferences": {},
  "deployedLinkReferences": {}
}