{
	"data": {
		"bytecode": {
			"linkReferences": {},
			"object": "6080604052348015600e575f80fd5b50335f806101000a81548173ffffffffffffffffffffffffffffffffffffffff021916908373ffffffffffffffffffffffffffffffffffffffff160217905550600160025f3373ffffffffffffffffffffffffffffffffffffffff1673ffffffffffffffffffffffffffffffffffffffff1681526020019081526020015f205f6101000a81548160ff021916908315150217905550611461806100b05f395ff3fe608060405234801561000f575f80fd5b5060043610610060575f3560e01c806327aed72e1461006457806339bdf2a114610097578063875f5449146100b3578063c0a64a80146100e3578063f0995560146100ff578063f851a4401461012f575b5f80fd5b61007e6004803603810190610079919061091d565b61014d565b60405161008e9493929190610a06565b60405180910390f35b6100b160048036038101906100ac9190610a81565b6102b3565b005b6100cd60048036038101906100c89190610bd8565b610398565b6040516100da9190610da7565b60405180910390f35b6100fd60048036038101906100f89190610dc7565b6106a5565b005b61011960048036038101906101149190610a81565b61085d565b6040516101269190610e69565b60405180910390f35b61013761087a565b6040516101449190610e82565b60405180910390f35b6001818154811061015c575f80fd5b905f5260205f2090600402015f91509050805f01805461017b90610ec8565b80601f01602080910402602001604051908101604052809291908181526020018280546101a790610ec8565b80156101f25780601f106101c9576101008083540402835291602001916101f2565b820191905f5260205f20905b8154815290600101906020018083116101d557829003601f168201915b50505050509080600101805461020790610ec8565b80601f016020809104026020016040519081016040528092919081815260200182805461023390610ec8565b801561027e5780601f106102555761010080835404028352916020019161027e565b820191905f5260205f20905b81548152906001019060200180831161026157829003601f168201915b505050505090806002015490806003015f9054906101000a900473ffffffffffffffffffffffffffffffffffffffff16905084565b5f8054906101000a900473ffffffffffffffffffffffffffffffffffffffff1673ffffffffffffffffffffffffffffffffffffffff163373ffffffffffffffffffffffffffffffffffffffff1614610340576040517f08c379a000000000000000000000000000000000000000000000000000000000815260040161033790610f42565b60405180910390fd5b600160025f8373ffffffffffffffffffffffffffffffffffffffff1673ffffffffffffffffffffffffffffffffffffffff1681526020019081526020015f205f6101000a81548160ff02191690831515021790555050565b60605f805b60018054905081101561040a578380519060200120600182815481106103c6576103c5610f60565b5b905f5260205f2090600402015f016040516103e19190611029565b6040518091039020036103fd5781806103f99061106c565b9250505b808060010191505061039d565b505f8167ffffffffffffffff81111561042657610425610ab4565b5b60405190808252806020026020018201604052801561045f57816020015b61044c61089d565b8152602001906001900390816104445790505b5090505f805b6001805490508110156106995785805190602001206001828154811061048e5761048d610f60565b5b905f5260205f2090600402015f016040516104a99190611029565b60405180910390200361068c57600181815481106104ca576104c9610f60565b5b905f5260205f2090600402016040518060800160405290815f820180546104f090610ec8565b80601f016020809104026020016040519081016040528092919081815260200182805461051c90610ec8565b80156105675780601f1061053e57610100808354040283529160200191610567565b820191905f5260205f20905b81548152906001019060200180831161054a57829003601f168201915b5050505050815260200160018201805461058090610ec8565b80601f01602080910402602001604051908101604052809291908181526020018280546105ac90610ec8565b80156105f75780601f106105ce576101008083540402835291602001916105f7565b820191905f5260205f20905b8154815290600101906020018083116105da57829003601f168201915b5050505050815260200160028201548152602001600382015f9054906101000a900473ffffffffffffffffffffffffffffffffffffffff1673ffffffffffffffffffffffffffffffffffffffff1673ffffffffffffffffffffffffffffffffffffffff168152505083838151811061067257610671610f60565b5b602002602001018190525081806106889061106c565b9250505b8080600101915050610465565b50819350505050919050565b60025f3373ffffffffffffffffffffffffffffffffffffffff1673ffffffffffffffffffffffffffffffffffffffff1681526020019081526020015f205f9054906101000a900460ff1661072e576040517f08c379a000000000000000000000000000000000000000000000000000000000815260040161072590611123565b60405180910390fd5b600160405180608001604052808581526020018481526020018381526020013373ffffffffffffffffffffffffffffffffffffffff16815250908060018154018082558091505060019003905f5260205f2090600402015f909190919091505f820151815f0190816107a091906112de565b5060208201518160010190816107b691906112de565b50604082015181600201556060820151816003015f6101000a81548173ffffffffffffffffffffffffffffffffffffffff021916908373ffffffffffffffffffffffffffffffffffffffff16021790555050508260405161081791906113e7565b60405180910390207f543a107d2cbb2b589fb6c6198a77c3c174d7e30bfa6027578650417380f2444983836040516108509291906113fd565b60405180910390a2505050565b6002602052805f5260405f205f915054906101000a900460ff1681565b5f8054906101000a900473ffffffffffffffffffffffffffffffffffffffff1681565b604051806080016040528060608152602001606081526020015f81526020015f73ffffffffffffffffffffffffffffffffffffffff1681525090565b5f604051905090565b5f80fd5b5f80fd5b5f819050919050565b6108fc816108ea565b8114610906575f80fd5b50565b5f81359050610917816108f3565b92915050565b5f60208284031215610932576109316108e2565b5b5f61093f84828501610909565b91505092915050565b5f81519050919050565b5f82825260208201905092915050565b8281835e5f83830152505050565b5f601f19601f8301169050919050565b5f61098a82610948565b6109948185610952565b93506109a4818560208601610962565b6109ad81610970565b840191505092915050565b6109c1816108ea565b82525050565b5f73ffffffffffffffffffffffffffffffffffffffff82169050919050565b5f6109f0826109c7565b9050919050565b610a00816109e6565b82525050565b5f6080820190508181035f830152610a1e8187610980565b90508181036020830152610a328186610980565b9050610a4160408301856109b8565b610a4e60608301846109f7565b95945050505050565b610a60816109e6565b8114610a6a575f80fd5b50565b5f81359050610a7b81610a57565b92915050565b5f60208284031215610a9657610a956108e2565b5b5f610aa384828501610a6d565b91505092915050565b5f80fd5b5f80fd5b7f4e487b71000000000000000000000000000000000000000000000000000000005f52604160045260245ffd5b610aea82610970565b810181811067ffffffffffffffff82111715610b0957610b08610ab4565b5b80604052505050565b5f610b1b6108d9565b9050610b278282610ae1565b919050565b5f67ffffffffffffffff821115610b4657610b45610ab4565b5b610b4f82610970565b9050602081019050919050565b828183375f83830152505050565b5f610b7c610b7784610b2c565b610b12565b905082815260208101848484011115610b9857610b97610ab0565b5b610ba3848285610b5c565b509392505050565b5f82601f830112610bbf57610bbe610aac565b5b8135610bcf848260208601610b6a565b91505092915050565b5f60208284031215610bed57610bec6108e2565b5b5f82013567ffffffffffffffff811115610c0a57610c096108e6565b5b610c1684828501610bab565b91505092915050565b5f81519050919050565b5f82825260208201905092915050565b5f819050602082019050919050565b5f82825260208201905092915050565b5f610c6282610948565b610c6c8185610c48565b9350610c7c818560208601610962565b610c8581610970565b840191505092915050565b610c99816108ea565b82525050565b610ca8816109e6565b82525050565b5f608083015f8301518482035f860152610cc88282610c58565b91505060208301518482036020860152610ce28282610c58565b9150506040830151610cf76040860182610c90565b506060830151610d0a6060860182610c9f565b508091505092915050565b5f610d208383610cae565b905092915050565b5f602082019050919050565b5f610d3e82610c1f565b610d488185610c29565b935083602082028501610d5a85610c39565b805f5b85811015610d955784840389528151610d768582610d15565b9450610d8183610d28565b925060208a01995050600181019050610d5d565b50829750879550505050505092915050565b5f6020820190508181035f830152610dbf8184610d34565b905092915050565b5f805f60608486031215610dde57610ddd6108e2565b5b5f84013567ffffffffffffffff811115610dfb57610dfa6108e6565b5b610e0786828701610bab565b935050602084013567ffffffffffffffff811115610e2857610e276108e6565b5b610e3486828701610bab565b9250506040610e4586828701610909565b9150509250925092565b5f8115159050919050565b610e6381610e4f565b82525050565b5f602082019050610e7c5f830184610e5a565b92915050565b5f602082019050610e955f8301846109f7565b92915050565b7f4e487b71000000000000000000000000000000000000000000000000000000005f52602260045260245ffd5b5f6002820490506001821680610edf57607f821691505b602082108103610ef257610ef1610e9b565b5b50919050565b7f4f6e6c792061646d696e2063616e2061646420756e69766572736974696573005f82015250565b5f610f2c601f83610952565b9150610f3782610ef8565b602082019050919050565b5f6020820190508181035f830152610f5981610f20565b9050919050565b7f4e487b71000000000000000000000000000000000000000000000000000000005f52603260045260245ffd5b5f81905092915050565b5f819050815f5260205f209050919050565b5f8154610fb581610ec8565b610fbf8186610f8d565b9450600182165f8114610fd95760018114610fee57611020565b60ff1983168652811515820286019350611020565b610ff785610f97565b5f5b8381101561101857815481890152600182019150602081019050610ff9565b838801955050505b50505092915050565b5f6110348284610fa9565b915081905092915050565b7f4e487b71000000000000000000000000000000000000000000000000000000005f52601160045260245ffd5b5f611076826108ea565b91507fffffffffffffffffffffffffffffffffffffffffffffffffffffffffffffffff82036110a8576110a761103f565b5b600182019050919050565b7f4f6e6c7920617574686f72697a656420756e697665727369746965732063616e5f8201527f2061646420646174610000000000000000000000000000000000000000000000602082015250565b5f61110d602983610952565b9150611118826110b3565b604082019050919050565b5f6020820190508181035f83015261113a81611101565b9050919050565b5f819050815f5260205f209050919050565b5f6020601f8301049050919050565b5f82821b905092915050565b5f6008830261119d7fffffffffffffffffffffffffffffffffffffffffffffffffffffffffffffffff82611162565b6111a78683611162565b95508019841693508086168417925050509392505050565b5f819050919050565b5f6111e26111dd6111d8846108ea565b6111bf565b6108ea565b9050919050565b5f819050919050565b6111fb836111c8565b61120f611207826111e9565b84845461116e565b825550505050565b5f90565b611223611217565b61122e8184846111f2565b505050565b5b81811015611251576112465f8261121b565b600181019050611234565b5050565b601f8211156112965761126781611141565b61127084611153565b8101602085101561127f578190505b61129361128b85611153565b830182611233565b50505b505050565b5f82821c905092915050565b5f6112b65f198460080261129b565b1980831691505092915050565b5f6112ce83836112a7565b9150826002028217905092915050565b6112e782610948565b67ffffffffffffffff811115611300576112ff610ab4565b5b61130a8254610ec8565b611315828285611255565b5f60209050601f831160018114611346575f8415611334578287015190505b61133e85826112c3565b8655506113a5565b601f19841661135486611141565b5f5b8281101561137b57848901518255600182019150602085019450602081019050611356565b868310156113985784890151611394601f8916826112a7565b8355505b6001600288020188555050505b505050505050565b5f81905092915050565b5f6113c182610948565b6113cb81856113ad565b93506113db818560208601610962565b80840191505092915050565b5f6113f282846113b7565b915081905092915050565b5f6040820190508181035f8301526114158185610980565b905061142460208301846109b8565b939250505056fea2646970667358221220c5a9e1c1c0e7e3d11a75c8ffde4935625ecb920c4d20dd84f64639fc7447035164736f6c634300081a0033",
			"opcodes": "PUSH1 0x80 PUSH1 0x40 MSTORE CALLVALUE DUP1 ISZERO PUSH1 0xE JUMPI PUSH0 DUP1 REVERT JUMPDEST POP CALLER PUSH0 DUP1 PUSH2 0x100 EXP DUP2 SLOAD DUP2 PUSH20 0xFFFFFFFFFFFFFFFFFFFFFFFFFFFFFFFFFFFFFFFF MUL NOT AND SWAP1 DUP4 PUSH20 0xFFFFFFFFFFFFFFFFFFFFFFFFFFFFFFFFFFFFFFFF AND MUL OR SWAP1 SSTORE POP PUSH1 0x1 PUSH1 0x2 PUSH0 CALLER PUSH20 0xFFFFFFFFFFFFFFFFFFFFFFFFFFFFFFFFFFFFFFFF AND PUSH20 0xFFFFFFFFFFFFFFFFFFFFFFFFFFFFFFFFFFFFFFFF AND DUP2 MSTORE PUSH1 0x20 ADD SWAP1 DUP2 MSTORE PUSH1 0x20 ADD PUSH0 KECCAK256 PUSH0 PUSH2 0x100 EXP DUP2 SLOAD DUP2 PUSH1 0xFF MUL NOT AND SWAP1 DUP4 ISZERO ISZERO MUL OR SWAP1 SSTORE POP PUSH2 0x1461 DUP1 PUSH2 0xB0 PUSH0 CODECOPY PUSH0 RETURN INVALID PUSH1 0x80 PUSH1 0x40 MSTORE CALLVALUE DUP1 ISZERO PUSH2 0xF JUMPI PUSH0 DUP1 REVERT JUMPDEST POP PUSH1 0x4 CALLDATASIZE LT PUSH2 0x60 JUMPI PUSH0 CALLDATALOAD PUSH1 0xE0 SHR DUP1 PUSH4 0x27AED72E EQ PUSH2 0x64 JUMPI DUP1 PUSH4 0x39BDF2A1 EQ PUSH2 0x97 JUMPI DUP1 PUSH4 0x875F5449 EQ PUSH2 0xB3 JUMPI DUP1 PUSH4 0xC0A64A80 EQ PUSH2 0xE3 JUMPI DUP1 PUSH4 0xF0995560 EQ PUSH2 0xFF JUMPI DUP1 PUSH4 0xF851A440 EQ PUSH2 0x12F JUMPI JUMPDEST PUSH0 DUP1 REVERT JUMPDEST PUSH2 0x7E PUSH1 0x4 DUP1 CALLDATASIZE SUB DUP2 ADD SWAP1 PUSH2 0x79 SWAP2 SWAP1 PUSH2 0x91D JUMP JUMPDEST PUSH2 0x14D JUMP JUMPDEST PUSH1 0x40 MLOAD PUSH2 0x8E SWAP5 SWAP4 SWAP3 SWAP2 SWAP1 PUSH2 0xA06 JUMP JUMPDEST PUSH1 0x40 MLOAD DUP1 SWAP2 SUB SWAP1 RETURN JUMPDEST PUSH2 0xB1 PUSH1 0x4 DUP1 CALLDATASIZE SUB DUP2 ADD SWAP1 PUSH2 0xAC SWAP2 SWAP1 PUSH2 0xA81 JUMP JUMPDEST PUSH2 0x2B3 JUMP JUMPDEST STOP JUMPDEST PUSH2 0xCD PUSH1 0x4 DUP1 CALLDATASIZE SUB DUP2 ADD SWAP1 PUSH2 0xC8 SWAP2 SWAP1 PUSH2 0xBD8 JUMP JUMPDEST PUSH2 0x398 JUMP JUMPDEST PUSH1 0x40 MLOAD PUSH2 0xDA SWAP2 SWAP1 PUSH2 0xDA7 JUMP JUMPDEST PUSH1 0x40 MLOAD DUP1 SWAP2 SUB SWAP1 RETURN JUMPDEST PUSH2 0xFD PUSH1 0x4 DUP1 CALLDATASIZE SUB DUP2 ADD SWAP1 PUSH2 0xF8 SWAP2 SWAP1 PUSH2 0xDC7 JUMP JUMPDEST PUSH2 0x6A5 JUMP JUMPDEST STOP JUMPDEST PUSH2 0x119 PUSH1 0x4 DUP1 CALLDATASIZE SUB DUP2 ADD SWAP1 PUSH2 0x114 SWAP2 SWAP1 PUSH2 0xA81 JUMP JUMPDEST PUSH2 0x85D JUMP JUMPDEST PUSH1 0x40 MLOAD PUSH2 0x126 SWAP2 SWAP1 PUSH2 0xE69 JUMP JUMPDEST PUSH1 0x40 MLOAD DUP1 SWAP2 SUB SWAP1 RETURN JUMPDEST PUSH2 0x137 PUSH2 0x87A JUMP JUMPDEST PUSH1 0x40 MLOAD PUSH2 0x144 SWAP2 SWAP1 PUSH2 0xE82 JUMP JUMPDEST PUSH1 0x40 MLOAD DUP1 SWAP2 SUB SWAP1 RETURN JUMPDEST PUSH1 0x1 DUP2 DUP2 SLOAD DUP2 LT PUSH2 0x15C JUMPI PUSH0 DUP1 REVERT JUMPDEST SWAP1 PUSH0 MSTORE PUSH1 0x20 PUSH0 KECCAK256 SWAP1 PUSH1 0x4 MUL ADD PUSH0 SWAP2 POP SWAP1 POP DUP1 PUSH0 ADD DUP1 SLOAD PUSH2 0x17B SWAP1 PUSH2 0xEC8 JUMP JUMPDEST DUP1 PUSH1 0x1F ADD PUSH1 0x20 DUP1 SWAP2 DIV MUL PUSH1 0x20 ADD PUSH1 0x40 MLOAD SWAP1 DUP2 ADD PUSH1 0x40 MSTORE DUP1 SWAP3 SWAP2 SWAP1 DUP2 DUP2 MSTORE PUSH1 0x20 ADD DUP3 DUP1 SLOAD PUSH2 0x1A7 SWAP1 PUSH2 0xEC8 JUMP JUMPDEST DUP1 ISZERO PUSH2 0x1F2 JUMPI DUP1 PUSH1 0x1F LT PUSH2 0x1C9 JUMPI PUSH2 0x100 DUP1 DUP4 SLOAD DIV MUL DUP4 MSTORE SWAP2 PUSH1 0x20 ADD SWAP2 PUSH2 0x1F2 JUMP JUMPDEST DUP3 ADD SWAP2 SWAP1 PUSH0 MSTORE PUSH1 0x20 PUSH0 KECCAK256 SWAP1 JUMPDEST DUP2 SLOAD DUP2 MSTORE SWAP1 PUSH1 0x1 ADD SWAP1 PUSH1 0x20 ADD DUP1 DUP4 GT PUSH2 0x1D5 JUMPI DUP3 SWAP1 SUB PUSH1 0x1F AND DUP3 ADD SWAP2 JUMPDEST POP POP POP POP POP SWAP1 DUP1 PUSH1 0x1 ADD DUP1 SLOAD PUSH2 0x207 SWAP1 PUSH2 0xEC8 JUMP JUMPDEST DUP1 PUSH1 0x1F ADD PUSH1 0x20 DUP1 SWAP2 DIV MUL PUSH1 0x20 ADD PUSH1 0x40 MLOAD SWAP1 DUP2 ADD PUSH1 0x40 MSTORE DUP1 SWAP3 SWAP2 SWAP1 DUP2 DUP2 MSTORE PUSH1 0x20 ADD DUP3 DUP1 SLOAD PUSH2 0x233 SWAP1 PUSH2 0xEC8 JUMP JUMPDEST DUP1 ISZERO PUSH2 0x27E JUMPI DUP1 PUSH1 0x1F LT PUSH2 0x255 JUMPI PUSH2 0x100 DUP1 DUP4 SLOAD DIV MUL DUP4 MSTORE SWAP2 PUSH1 0x20 ADD SWAP2 PUSH2 0x27E JUMP JUMPDEST DUP3 ADD SWAP2 SWAP1 PUSH0 MSTORE PUSH1 0x20 PUSH0 KECCAK256 SWAP1 JUMPDEST DUP2 SLOAD DUP2 MSTORE SWAP1 PUSH1 0x1 ADD SWAP1 PUSH1 0x20 ADD DUP1 DUP4 GT PUSH2 0x261 JUMPI DUP3 SWAP1 SUB PUSH1 0x1F AND DUP3 ADD SWAP2 JUMPDEST POP POP POP POP POP SWAP1 DUP1 PUSH1 0x2 ADD SLOAD SWAP1 DUP1 PUSH1 0x3 ADD PUSH0 SWAP1 SLOAD SWAP1 PUSH2 0x100 EXP SWAP1 DIV PUSH20 0xFFFFFFFFFFFFFFFFFFFFFFFFFFFFFFFFFFFFFFFF AND SWAP1 POP DUP5 JUMP JUMPDEST PUSH0 DUP1 SLOAD SWAP1 PUSH2 0x100 EXP SWAP1 DIV PUSH20 0xFFFFFFFFFFFFFFFFFFFFFFFFFFFFFFFFFFFFFFFF AND PUSH20 0xFFFFFFFFFFFFFFFFFFFFFFFFFFFFFFFFFFFFFFFF AND CALLER PUSH20 0xFFFFFFFFFFFFFFFFFFFFFFFFFFFFFFFFFFFFFFFF AND EQ PUSH2 0x340 JUMPI PUSH1 0x40 MLOAD PUSH32 0x8C379A000000000000000000000000000000000000000000000000000000000 DUP2 MSTORE PUSH1 0x4 ADD PUSH2 0x337 SWAP1 PUSH2 0xF42 JUMP JUMPDEST PUSH1 0x40 MLOAD DUP1 SWAP2 SUB SWAP1 REVERT JUMPDEST PUSH1 0x1 PUSH1 0x2 PUSH0 DUP4 PUSH20 0xFFFFFFFFFFFFFFFFFFFFFFFFFFFFFFFFFFFFFFFF AND PUSH20 0xFFFFFFFFFFFFFFFFFFFFFFFFFFFFFFFFFFFFFFFF AND DUP2 MSTORE PUSH1 0x20 ADD SWAP1 DUP2 MSTORE PUSH1 0x20 ADD PUSH0 KECCAK256 PUSH0 PUSH2 0x100 EXP DUP2 SLOAD DUP2 PUSH1 0xFF MUL NOT AND SWAP1 DUP4 ISZERO ISZERO MUL OR SWAP1 SSTORE POP POP JUMP JUMPDEST PUSH1 0x60 PUSH0 DUP1 JUMPDEST PUSH1 0x1 DUP1 SLOAD SWAP1 POP DUP2 LT ISZERO PUSH2 0x40A JUMPI DUP4 DUP1 MLOAD SWAP1 PUSH1 0x20 ADD KECCAK256 PUSH1 0x1 DUP3 DUP2 SLOAD DUP2 LT PUSH2 0x3C6 JUMPI PUSH2 0x3C5 PUSH2 0xF60 JUMP JUMPDEST JUMPDEST SWAP1 PUSH0 MSTORE PUSH1 0x20 PUSH0 KECCAK256 SWAP1 PUSH1 0x4 MUL ADD PUSH0 ADD PUSH1 0x40 MLOAD PUSH2 0x3E1 SWAP2 SWAP1 PUSH2 0x1029 JUMP JUMPDEST PUSH1 0x40 MLOAD DUP1 SWAP2 SUB SWAP1 KECCAK256 SUB PUSH2 0x3FD JUMPI DUP2 DUP1 PUSH2 0x3F9 SWAP1 PUSH2 0x106C JUMP JUMPDEST SWAP3 POP POP JUMPDEST DUP1 DUP1 PUSH1 0x1 ADD SWAP2 POP POP PUSH2 0x39D JUMP JUMPDEST POP PUSH0 DUP2 PUSH8 0xFFFFFFFFFFFFFFFF DUP2 GT ISZERO PUSH2 0x426 JUMPI PUSH2 0x425 PUSH2 0xAB4 JUMP JUMPDEST JUMPDEST PUSH1 0x40 MLOAD SWAP1 DUP1 DUP3 MSTORE DUP1 PUSH1 0x20 MUL PUSH1 0x20 ADD DUP3 ADD PUSH1 0x40 MSTORE DUP1 ISZERO PUSH2 0x45F JUMPI DUP2 PUSH1 0x20 ADD JUMPDEST PUSH2 0x44C PUSH2 0x89D JUMP JUMPDEST DUP2 MSTORE PUSH1 0x20 ADD SWAP1 PUSH1 0x1 SWAP1 SUB SWAP1 DUP2 PUSH2 0x444 JUMPI SWAP1 POP JUMPDEST POP SWAP1 POP PUSH0 DUP1 JUMPDEST PUSH1 0x1 DUP1 SLOAD SWAP1 POP DUP2 LT ISZERO PUSH2 0x699 JUMPI DUP6 DUP1 MLOAD SWAP1 PUSH1 0x20 ADD KECCAK256 PUSH1 0x1 DUP3 DUP2 SLOAD DUP2 LT PUSH2 0x48E JUMPI PUSH2 0x48D PUSH2 0xF60 JUMP JUMPDEST JUMPDEST SWAP1 PUSH0 MSTORE PUSH1 0x20 PUSH0 KECCAK256 SWAP1 PUSH1 0x4 MUL ADD PUSH0 ADD PUSH1 0x40 MLOAD PUSH2 0x4A9 SWAP2 SWAP1 PUSH2 0x1029 JUMP JUMPDEST PUSH1 0x40 MLOAD DUP1 SWAP2 SUB SWAP1 KECCAK256 SUB PUSH2 0x68C JUMPI PUSH1 0x1 DUP2 DUP2 SLOAD DUP2 LT PUSH2 0x4CA JUMPI PUSH2 0x4C9 PUSH2 0xF60 JUMP JUMPDEST JUMPDEST SWAP1 PUSH0 MSTORE PUSH1 0x20 PUSH0 KECCAK256 SWAP1 PUSH1 0x4 MUL ADD PUSH1 0x40 MLOAD DUP1 PUSH1 0x80 ADD PUSH1 0x40 MSTORE SWAP1 DUP2 PUSH0 DUP3 ADD DUP1 SLOAD PUSH2 0x4F0 SWAP1 PUSH2 0xEC8 JUMP JUMPDEST DUP1 PUSH1 0x1F ADD PUSH1 0x20 DUP1 SWAP2 DIV MUL PUSH1 0x20 ADD PUSH1 0x40 MLOAD SWAP1 DUP2 ADD PUSH1 0x40 MSTORE DUP1 SWAP3 SWAP2 SWAP1 DUP2 DUP2 MSTORE PUSH1 0x20 ADD DUP3 DUP1 SLOAD PUSH2 0x51C SWAP1 PUSH2 0xEC8 JUMP JUMPDEST DUP1 ISZERO PUSH2 0x567 JUMPI DUP1 PUSH1 0x1F LT PUSH2 0x53E JUMPI PUSH2 0x100 DUP1 DUP4 SLOAD DIV MUL DUP4 MSTORE SWAP2 PUSH1 0x20 ADD SWAP2 PUSH2 0x567 JUMP JUMPDEST DUP3 ADD SWAP2 SWAP1 PUSH0 MSTORE PUSH1 0x20 PUSH0 KECCAK256 SWAP1 JUMPDEST DUP2 SLOAD DUP2 MSTORE SWAP1 PUSH1 0x1 ADD SWAP1 PUSH1 0x20 ADD DUP1 DUP4 GT PUSH2 0x54A JUMPI DUP3 SWAP1 SUB PUSH1 0x1F AND DUP3 ADD SWAP2 JUMPDEST POP POP POP POP POP DUP2 MSTORE PUSH1 0x20 ADD PUSH1 0x1 DUP3 ADD DUP1 SLOAD PUSH2 0x580 SWAP1 PUSH2 0xEC8 JUMP JUMPDEST DUP1 PUSH1 0x1F ADD PUSH1 0x20 DUP1 SWAP2 DIV MUL PUSH1 0x20 ADD PUSH1 0x40 MLOAD SWAP1 DUP2 ADD PUSH1 0x40 MSTORE DUP1 SWAP3 SWAP2 SWAP1 DUP2 DUP2 MSTORE PUSH1 0x20 ADD DUP3 DUP1 SLOAD PUSH2 0x5AC SWAP1 PUSH2 0xEC8 JUMP JUMPDEST DUP1 ISZERO PUSH2 0x5F7 JUMPI DUP1 PUSH1 0x1F LT PUSH2 0x5CE JUMPI PUSH2 0x100 DUP1 DUP4 SLOAD DIV MUL DUP4 MSTORE SWAP2 PUSH1 0x20 ADD SWAP2 PUSH2 0x5F7 JUMP JUMPDEST DUP3 ADD SWAP2 SWAP1 PUSH0 MSTORE PUSH1 0x20 PUSH0 KECCAK256 SWAP1 JUMPDEST DUP2 SLOAD DUP2 MSTORE SWAP1 PUSH1 0x1 ADD SWAP1 PUSH1 0x20 ADD DUP1 DUP4 GT PUSH2 0x5DA JUMPI DUP3 SWAP1 SUB PUSH1 0x1F AND DUP3 ADD SWAP2 JUMPDEST POP POP POP POP POP DUP2 MSTORE PUSH1 0x20 ADD PUSH1 0x2 DUP3 ADD SLOAD DUP2 MSTORE PUSH1 0x20 ADD PUSH1 0x3 DUP3 ADD PUSH0 SWAP1 SLOAD SWAP1 PUSH2 0x100 EXP SWAP1 DIV PUSH20 0xFFFFFFFFFFFFFFFFFFFFFFFFFFFFFFFFFFFFFFFF AND PUSH20 0xFFFFFFFFFFFFFFFFFFFFFFFFFFFFFFFFFFFFFFFF AND PUSH20 0xFFFFFFFFFFFFFFFFFFFFFFFFFFFFFFFFFFFFFFFF AND DUP2 MSTORE POP POP DUP4 DUP4 DUP2 MLOAD DUP2 LT PUSH2 0x672 JUMPI PUSH2 0x671 PUSH2 0xF60 JUMP JUMPDEST JUMPDEST PUSH1 0x20 MUL PUSH1 0x20 ADD ADD DUP2 SWAP1 MSTORE POP DUP2 DUP1 PUSH2 0x688 SWAP1 PUSH2 0x106C JUMP JUMPDEST SWAP3 POP POP JUMPDEST DUP1 DUP1 PUSH1 0x1 ADD SWAP2 POP POP PUSH2 0x465 JUMP JUMPDEST POP DUP2 SWAP4 POP POP POP POP SWAP2 SWAP1 POP JUMP JUMPDEST PUSH1 0x2 PUSH0 CALLER PUSH20 0xFFFFFFFFFFFFFFFFFFFFFFFFFFFFFFFFFFFFFFFF AND PUSH20 0xFFFFFFFFFFFFFFFFFFFFFFFFFFFFFFFFFFFFFFFF AND DUP2 MSTORE PUSH1 0x20 ADD SWAP1 DUP2 MSTORE PUSH1 0x20 ADD PUSH0 KECCAK256 PUSH0 SWAP1 SLOAD SWAP1 PUSH2 0x100 EXP SWAP1 DIV PUSH1 0xFF AND PUSH2 0x72E JUMPI PUSH1 0x40 MLOAD PUSH32 0x8C379A000000000000000000000000000000000000000000000000000000000 DUP2 MSTORE PUSH1 0x4 ADD PUSH2 0x725 SWAP1 PUSH2 0x1123 JUMP JUMPDEST PUSH1 0x40 MLOAD DUP1 SWAP2 SUB SWAP1 REVERT JUMPDEST PUSH1 0x1 PUSH1 0x40 MLOAD DUP1 PUSH1 0x80 ADD PUSH1 0x40 MSTORE DUP1 DUP6 DUP2 MSTORE PUSH1 0x20 ADD DUP5 DUP2 MSTORE PUSH1 0x20 ADD DUP4 DUP2 MSTORE PUSH1 0x20 ADD CALLER PUSH20 0xFFFFFFFFFFFFFFFFFFFFFFFFFFFFFFFFFFFFFFFF AND DUP2 MSTORE POP SWAP1 DUP1 PUSH1 0x1 DUP2 SLOAD ADD DUP1 DUP3 SSTORE DUP1 SWAP2 POP POP PUSH1 0x1 SWAP1 SUB SWAP1 PUSH0 MSTORE PUSH1 0x20 PUSH0 KECCAK256 SWAP1 PUSH1 0x4 MUL ADD PUSH0 SWAP1 SWAP2 SWAP1 SWAP2 SWAP1 SWAP2 POP PUSH0 DUP3 ADD MLOAD DUP2 PUSH0 ADD SWAP1 DUP2 PUSH2 0x7A0 SWAP2 SWAP1 PUSH2 0x12DE JUMP JUMPDEST POP PUSH1 0x20 DUP3 ADD MLOAD DUP2 PUSH1 0x1 ADD SWAP1 DUP2 PUSH2 0x7B6 SWAP2 SWAP1 PUSH2 0x12DE JUMP JUMPDEST POP PUSH1 0x40 DUP3 ADD MLOAD DUP2 PUSH1 0x2 ADD SSTORE PUSH1 0x60 DUP3 ADD MLOAD DUP2 PUSH1 0x3 ADD PUSH0 PUSH2 0x100 EXP DUP2 SLOAD DUP2 PUSH20 0xFFFFFFFFFFFFFFFFFFFFFFFFFFFFFFFFFFFFFFFF MUL NOT AND SWAP1 DUP4 PUSH20 0xFFFFFFFFFFFFFFFFFFFFFFFFFFFFFFFFFFFFFFFF AND MUL OR SWAP1 SSTORE POP POP POP DUP3 PUSH1 0x40 MLOAD PUSH2 0x817 SWAP2 SWAP1 PUSH2 0x13E7 JUMP JUMPDEST PUSH1 0x40 MLOAD DUP1 SWAP2 SUB SWAP1 KECCAK256 PUSH32 0x543A107D2CBB2B589FB6C6198A77C3C174D7E30BFA6027578650417380F24449 DUP4 DUP4 PUSH1 0x40 MLOAD PUSH2 0x850 SWAP3 SWAP2 SWAP1 PUSH2 0x13FD JUMP JUMPDEST PUSH1 0x40 MLOAD DUP1 SWAP2 SUB SWAP1 LOG2 POP POP POP JUMP JUMPDEST PUSH1 0x2 PUSH1 0x20 MSTORE DUP1 PUSH0 MSTORE PUSH1 0x40 PUSH0 KECCAK256 PUSH0 SWAP2 POP SLOAD SWAP1 PUSH2 0x100 EXP SWAP1 DIV PUSH1 0xFF AND DUP2 JUMP JUMPDEST PUSH0 DUP1 SLOAD SWAP1 PUSH2 0x100 EXP SWAP1 DIV PUSH20 0xFFFFFFFFFFFFFFFFFFFFFFFFFFFFFFFFFFFFFFFF AND DUP2 JUMP JUMPDEST PUSH1 0x40 MLOAD DUP1 PUSH1 0x80 ADD PUSH1 0x40 MSTORE DUP1 PUSH1 0x60 DUP2 MSTORE PUSH1 0x20 ADD PUSH1 0x60 DUP2 MSTORE PUSH1 0x20 ADD PUSH0 DUP2 MSTORE PUSH1 0x20 ADD PUSH0 PUSH20 0xFFFFFFFFFFFFFFFFFFFFFFFFFFFFFFFFFFFFFFFF AND DUP2 MSTORE POP SWAP1 JUMP JUMPDEST PUSH0 PUSH1 0x40 MLOAD SWAP1 POP SWAP1 JUMP JUMPDEST PUSH0 DUP1 REVERT JUMPDEST PUSH0 DUP1 REVERT JUMPDEST PUSH0 DUP2 SWAP1 POP SWAP2 SWAP1 POP JUMP JUMPDEST PUSH2 0x8FC DUP2 PUSH2 0x8EA JUMP JUMPDEST DUP2 EQ PUSH2 0x906 JUMPI PUSH0 DUP1 REVERT JUMPDEST POP JUMP JUMPDEST PUSH0 DUP2 CALLDATALOAD SWAP1 POP PUSH2 0x917 DUP2 PUSH2 0x8F3 JUMP JUMPDEST SWAP3 SWAP2 POP POP JUMP JUMPDEST PUSH0 PUSH1 0x20 DUP3 DUP5 SUB SLT ISZERO PUSH2 0x932 JUMPI PUSH2 0x931 PUSH2 0x8E2 JUMP JUMPDEST JUMPDEST PUSH0 PUSH2 0x93F DUP5 DUP3 DUP6 ADD PUSH2 0x909 JUMP JUMPDEST SWAP2 POP POP SWAP3 SWAP2 POP POP JUMP JUMPDEST PUSH0 DUP2 MLOAD SWAP1 POP SWAP2 SWAP1 POP JUMP JUMPDEST PUSH0 DUP3 DUP3 MSTORE PUSH1 0x20 DUP3 ADD SWAP1 POP SWAP3 SWAP2 POP POP JUMP JUMPDEST DUP3 DUP2 DUP4 MCOPY PUSH0 DUP4 DUP4 ADD MSTORE POP POP POP JUMP JUMPDEST PUSH0 PUSH1 0x1F NOT PUSH1 0x1F DUP4 ADD AND SWAP1 POP SWAP2 SWAP1 POP JUMP JUMPDEST PUSH0 PUSH2 0x98A DUP3 PUSH2 0x948 JUMP JUMPDEST PUSH2 0x994 DUP2 DUP6 PUSH2 0x952 JUMP JUMPDEST SWAP4 POP PUSH2 0x9A4 DUP2 DUP6 PUSH1 0x20 DUP7 ADD PUSH2 0x962 JUMP JUMPDEST PUSH2 0x9AD DUP2 PUSH2 0x970 JUMP JUMPDEST DUP5 ADD SWAP2 POP POP SWAP3 SWAP2 POP POP JUMP JUMPDEST PUSH2 0x9C1 DUP2 PUSH2 0x8EA JUMP JUMPDEST DUP3 MSTORE POP POP JUMP JUMPDEST PUSH0 PUSH20 0xFFFFFFFFFFFFFFFFFFFFFFFFFFFFFFFFFFFFFFFF DUP3 AND SWAP1 POP SWAP2 SWAP1 POP JUMP JUMPDEST PUSH0 PUSH2 0x9F0 DUP3 PUSH2 0x9C7 JUMP JUMPDEST SWAP1 POP SWAP2 SWAP1 POP JUMP JUMPDEST PUSH2 0xA00 DUP2 PUSH2 0x9E6 JUMP JUMPDEST DUP3 MSTORE POP POP JUMP JUMPDEST PUSH0 PUSH1 0x80 DUP3 ADD SWAP1 POP DUP2 DUP2 SUB PUSH0 DUP4 ADD MSTORE PUSH2 0xA1E DUP2 DUP8 PUSH2 0x980 JUMP JUMPDEST SWAP1 POP DUP2 DUP2 SUB PUSH1 0x20 DUP4 ADD MSTORE PUSH2 0xA32 DUP2 DUP7 PUSH2 0x980 JUMP JUMPDEST SWAP1 POP PUSH2 0xA41 PUSH1 0x40 DUP4 ADD DUP6 PUSH2 0x9B8 JUMP JUMPDEST PUSH2 0xA4E PUSH1 0x60 DUP4 ADD DUP5 PUSH2 0x9F7 JUMP JUMPDEST SWAP6 SWAP5 POP POP POP POP POP JUMP JUMPDEST PUSH2 0xA60 DUP2 PUSH2 0x9E6 JUMP JUMPDEST DUP2 EQ PUSH2 0xA6A JUMPI PUSH0 DUP1 REVERT JUMPDEST POP JUMP JUMPDEST PUSH0 DUP2 CALLDATALOAD SWAP1 POP PUSH2 0xA7B DUP2 PUSH2 0xA57 JUMP JUMPDEST SWAP3 SWAP2 POP POP JUMP JUMPDEST PUSH0 PUSH1 0x20 DUP3 DUP5 SUB SLT ISZERO PUSH2 0xA96 JUMPI PUSH2 0xA95 PUSH2 0x8E2 JUMP JUMPDEST JUMPDEST PUSH0 PUSH2 0xAA3 DUP5 DUP3 DUP6 ADD PUSH2 0xA6D JUMP JUMPDEST SWAP2 POP POP SWAP3 SWAP2 POP POP JUMP JUMPDEST PUSH0 DUP1 REVERT JUMPDEST PUSH0 DUP1 REVERT JUMPDEST PUSH32 0x4E487B7100000000000000000000000000000000000000000000000000000000 PUSH0 MSTORE PUSH1 0x41 PUSH1 0x4 MSTORE PUSH1 0x24 PUSH0 REVERT JUMPDEST PUSH2 0xAEA DUP3 PUSH2 0x970 JUMP JUMPDEST DUP2 ADD DUP2 DUP2 LT PUSH8 0xFFFFFFFFFFFFFFFF DUP3 GT OR ISZERO PUSH2 0xB09 JUMPI PUSH2 0xB08 PUSH2 0xAB4 JUMP JUMPDEST JUMPDEST DUP1 PUSH1 0x40 MSTORE POP POP POP JUMP JUMPDEST PUSH0 PUSH2 0xB1B PUSH2 0x8D9 JUMP JUMPDEST SWAP1 POP PUSH2 0xB27 DUP3 DUP3 PUSH2 0xAE1 JUMP JUMPDEST SWAP2 SWAP1 POP JUMP JUMPDEST PUSH0 PUSH8 0xFFFFFFFFFFFFFFFF DUP3 GT ISZERO PUSH2 0xB46 JUMPI PUSH2 0xB45 PUSH2 0xAB4 JUMP JUMPDEST JUMPDEST PUSH2 0xB4F DUP3 PUSH2 0x970 JUMP JUMPDEST SWAP1 POP PUSH1 0x20 DUP2 ADD SWAP1 POP SWAP2 SWAP1 POP JUMP JUMPDEST DUP3 DUP2 DUP4 CALLDATACOPY PUSH0 DUP4 DUP4 ADD MSTORE POP POP POP JUMP JUMPDEST PUSH0 PUSH2 0xB7C PUSH2 0xB77 DUP5 PUSH2 0xB2C JUMP JUMPDEST PUSH2 0xB12 JUMP JUMPDEST SWAP1 POP DUP3 DUP2 MSTORE PUSH1 0x20 DUP2 ADD DUP5 DUP5 DUP5 ADD GT ISZERO PUSH2 0xB98 JUMPI PUSH2 0xB97 PUSH2 0xAB0 JUMP JUMPDEST JUMPDEST PUSH2 0xBA3 DUP5 DUP3 DUP6 PUSH2 0xB5C JUMP JUMPDEST POP SWAP4 SWAP3 POP POP POP JUMP JUMPDEST PUSH0 DUP3 PUSH1 0x1F DUP4 ADD SLT PUSH2 0xBBF JUMPI PUSH2 0xBBE PUSH2 0xAAC JUMP JUMPDEST JUMPDEST DUP2 CALLDATALOAD PUSH2 0xBCF DUP5 DUP3 PUSH1 0x20 DUP7 ADD PUSH2 0xB6A JUMP JUMPDEST SWAP2 POP POP SWAP3 SWAP2 POP POP JUMP JUMPDEST PUSH0 PUSH1 0x20 DUP3 DUP5 SUB SLT ISZERO PUSH2 0xBED JUMPI PUSH2 0xBEC PUSH2 0x8E2 JUMP JUMPDEST JUMPDEST PUSH0 DUP3 ADD CALLDATALOAD PUSH8 0xFFFFFFFFFFFFFFFF DUP2 GT ISZERO PUSH2 0xC0A JUMPI PUSH2 0xC09 PUSH2 0x8E6 JUMP JUMPDEST JUMPDEST PUSH2 0xC16 DUP5 DUP3 DUP6 ADD PUSH2 0xBAB JUMP JUMPDEST SWAP2 POP POP SWAP3 SWAP2 POP POP JUMP JUMPDEST PUSH0 DUP2 MLOAD SWAP1 POP SWAP2 SWAP1 POP JUMP JUMPDEST PUSH0 DUP3 DUP3 MSTORE PUSH1 0x20 DUP3 ADD SWAP1 POP SWAP3 SWAP2 POP POP JUMP JUMPDEST PUSH0 DUP2 SWAP1 POP PUSH1 0x20 DUP3 ADD SWAP1 POP SWAP2 SWAP1 POP JUMP JUMPDEST PUSH0 DUP3 DUP3 MSTORE PUSH1 0x20 DUP3 ADD SWAP1 POP SWAP3 SWAP2 POP POP JUMP JUMPDEST PUSH0 PUSH2 0xC62 DUP3 PUSH2 0x948 JUMP JUMPDEST PUSH2 0xC6C DUP2 DUP6 PUSH2 0xC48 JUMP JUMPDEST SWAP4 POP PUSH2 0xC7C DUP2 DUP6 PUSH1 0x20 DUP7 ADD PUSH2 0x962 JUMP JUMPDEST PUSH2 0xC85 DUP2 PUSH2 0x970 JUMP JUMPDEST DUP5 ADD SWAP2 POP POP SWAP3 SWAP2 POP POP JUMP JUMPDEST PUSH2 0xC99 DUP2 PUSH2 0x8EA JUMP JUMPDEST DUP3 MSTORE POP POP JUMP JUMPDEST PUSH2 0xCA8 DUP2 PUSH2 0x9E6 JUMP JUMPDEST DUP3 MSTORE POP POP JUMP JUMPDEST PUSH0 PUSH1 0x80 DUP4 ADD PUSH0 DUP4 ADD MLOAD DUP5 DUP3 SUB PUSH0 DUP7 ADD MSTORE PUSH2 0xCC8 DUP3 DUP3 PUSH2 0xC58 JUMP JUMPDEST SWAP2 POP POP PUSH1 0x20 DUP4 ADD MLOAD DUP5 DUP3 SUB PUSH1 0x20 DUP7 ADD MSTORE PUSH2 0xCE2 DUP3 DUP3 PUSH2 0xC58 JUMP JUMPDEST SWAP2 POP POP PUSH1 0x40 DUP4 ADD MLOAD PUSH2 0xCF7 PUSH1 0x40 DUP7 ADD DUP3 PUSH2 0xC90 JUMP JUMPDEST POP PUSH1 0x60 DUP4 ADD MLOAD PUSH2 0xD0A PUSH1 0x60 DUP7 ADD DUP3 PUSH2 0xC9F JUMP JUMPDEST POP DUP1 SWAP2 POP POP SWAP3 SWAP2 POP POP JUMP JUMPDEST PUSH0 PUSH2 0xD20 DUP4 DUP4 PUSH2 0xCAE JUMP JUMPDEST SWAP1 POP SWAP3 SWAP2 POP POP JUMP JUMPDEST PUSH0 PUSH1 0x20 DUP3 ADD SWAP1 POP SWAP2 SWAP1 POP JUMP JUMPDEST PUSH0 PUSH2 0xD3E DUP3 PUSH2 0xC1F JUMP JUMPDEST PUSH2 0xD48 DUP2 DUP6 PUSH2 0xC29 JUMP JUMPDEST SWAP4 POP DUP4 PUSH1 0x20 DUP3 MUL DUP6 ADD PUSH2 0xD5A DUP6 PUSH2 0xC39 JUMP JUMPDEST DUP1 PUSH0 JUMPDEST DUP6 DUP2 LT ISZERO PUSH2 0xD95 JUMPI DUP5 DUP5 SUB DUP10 MSTORE DUP2 MLOAD PUSH2 0xD76 DUP6 DUP3 PUSH2 0xD15 JUMP JUMPDEST SWAP5 POP PUSH2 0xD81 DUP4 PUSH2 0xD28 JUMP JUMPDEST SWAP3 POP PUSH1 0x20 DUP11 ADD SWAP10 POP POP PUSH1 0x1 DUP2 ADD SWAP1 POP PUSH2 0xD5D JUMP JUMPDEST POP DUP3 SWAP8 POP DUP8 SWAP6 POP POP POP POP POP POP SWAP3 SWAP2 POP POP JUMP JUMPDEST PUSH0 PUSH1 0x20 DUP3 ADD SWAP1 POP DUP2 DUP2 SUB PUSH0 DUP4 ADD MSTORE PUSH2 0xDBF DUP2 DUP5 PUSH2 0xD34 JUMP JUMPDEST SWAP1 POP SWAP3 SWAP2 POP POP JUMP JUMPDEST PUSH0 DUP1 PUSH0 PUSH1 0x60 DUP5 DUP7 SUB SLT ISZERO PUSH2 0xDDE JUMPI PUSH2 0xDDD PUSH2 0x8E2 JUMP JUMPDEST JUMPDEST PUSH0 DUP5 ADD CALLDATALOAD PUSH8 0xFFFFFFFFFFFFFFFF DUP2 GT ISZERO PUSH2 0xDFB JUMPI PUSH2 0xDFA PUSH2 0x8E6 JUMP JUMPDEST JUMPDEST PUSH2 0xE07 DUP7 DUP3 DUP8 ADD PUSH2 0xBAB JUMP JUMPDEST SWAP4 POP POP PUSH1 0x20 DUP5 ADD CALLDATALOAD PUSH8 0xFFFFFFFFFFFFFFFF DUP2 GT ISZERO PUSH2 0xE28 JUMPI PUSH2 0xE27 PUSH2 0x8E6 JUMP JUMPDEST JUMPDEST PUSH2 0xE34 DUP7 DUP3 DUP8 ADD PUSH2 0xBAB JUMP JUMPDEST SWAP3 POP POP PUSH1 0x40 PUSH2 0xE45 DUP7 DUP3 DUP8 ADD PUSH2 0x909 JUMP JUMPDEST SWAP2 POP POP SWAP3 POP SWAP3 POP SWAP3 JUMP JUMPDEST PUSH0 DUP2 ISZERO ISZERO SWAP1 POP SWAP2 SWAP1 POP JUMP JUMPDEST PUSH2 0xE63 DUP2 PUSH2 0xE4F JUMP JUMPDEST DUP3 MSTORE POP POP JUMP JUMPDEST PUSH0 PUSH1 0x20 DUP3 ADD SWAP1 POP PUSH2 0xE7C PUSH0 DUP4 ADD DUP5 PUSH2 0xE5A JUMP JUMPDEST SWAP3 SWAP2 POP POP JUMP JUMPDEST PUSH0 PUSH1 0x20 DUP3 ADD SWAP1 POP PUSH2 0xE95 PUSH0 DUP4 ADD DUP5 PUSH2 0x9F7 JUMP JUMPDEST SWAP3 SWAP2 POP POP JUMP JUMPDEST PUSH32 0x4E487B7100000000000000000000000000000000000000000000000000000000 PUSH0 MSTORE PUSH1 0x22 PUSH1 0x4 MSTORE PUSH1 0x24 PUSH0 REVERT JUMPDEST PUSH0 PUSH1 0x2 DUP3 DIV SWAP1 POP PUSH1 0x1 DUP3 AND DUP1 PUSH2 0xEDF JUMPI PUSH1 0x7F DUP3 AND SWAP2 POP JUMPDEST PUSH1 0x20 DUP3 LT DUP2 SUB PUSH2 0xEF2 JUMPI PUSH2 0xEF1 PUSH2 0xE9B JUMP JUMPDEST JUMPDEST POP SWAP2 SWAP1 POP JUMP JUMPDEST PUSH32 0x4F6E6C792061646D696E2063616E2061646420756E6976657273697469657300 PUSH0 DUP3 ADD MSTORE POP JUMP JUMPDEST PUSH0 PUSH2 0xF2C PUSH1 0x1F DUP4 PUSH2 0x952 JUMP JUMPDEST SWAP2 POP PUSH2 0xF37 DUP3 PUSH2 0xEF8 JUMP JUMPDEST PUSH1 0x20 DUP3 ADD SWAP1 POP SWAP2 SWAP1 POP JUMP JUMPDEST PUSH0 PUSH1 0x20 DUP3 ADD SWAP1 POP DUP2 DUP2 SUB PUSH0 DUP4 ADD MSTORE PUSH2 0xF59 DUP2 PUSH2 0xF20 JUMP JUMPDEST SWAP1 POP SWAP2 SWAP1 POP JUMP JUMPDEST PUSH32 0x4E487B7100000000000000000000000000000000000000000000000000000000 PUSH0 MSTORE PUSH1 0x32 PUSH1 0x4 MSTORE PUSH1 0x24 PUSH0 REVERT JUMPDEST PUSH0 DUP2 SWAP1 POP SWAP3 SWAP2 POP POP JUMP JUMPDEST PUSH0 DUP2 SWAP1 POP DUP2 PUSH0 MSTORE PUSH1 0x20 PUSH0 KECCAK256 SWAP1 POP SWAP2 SWAP1 POP JUMP JUMPDEST PUSH0 DUP2 SLOAD PUSH2 0xFB5 DUP2 PUSH2 0xEC8 JUMP JUMPDEST PUSH2 0xFBF DUP2 DUP7 PUSH2 0xF8D JUMP JUMPDEST SWAP5 POP PUSH1 0x1 DUP3 AND PUSH0 DUP2 EQ PUSH2 0xFD9 JUMPI PUSH1 0x1 DUP2 EQ PUSH2 0xFEE JUMPI PUSH2 0x1020 JUMP JUMPDEST PUSH1 0xFF NOT DUP4 AND DUP7 MSTORE DUP2 ISZERO ISZERO DUP3 MUL DUP7 ADD SWAP4 POP PUSH2 0x1020 JUMP JUMPDEST PUSH2 0xFF7 DUP6 PUSH2 0xF97 JUMP JUMPDEST PUSH0 JUMPDEST DUP4 DUP2 LT ISZERO PUSH2 0x1018 JUMPI DUP2 SLOAD DUP2 DUP10 ADD MSTORE PUSH1 0x1 DUP3 ADD SWAP2 POP PUSH1 0x20 DUP2 ADD SWAP1 POP PUSH2 0xFF9 JUMP JUMPDEST DUP4 DUP9 ADD SWAP6 POP POP POP JUMPDEST POP POP POP SWAP3 SWAP2 POP POP JUMP JUMPDEST PUSH0 PUSH2 0x1034 DUP3 DUP5 PUSH2 0xFA9 JUMP JUMPDEST SWAP2 POP DUP2 SWAP1 POP SWAP3 SWAP2 POP POP JUMP JUMPDEST PUSH32 0x4E487B7100000000000000000000000000000000000000000000000000000000 PUSH0 MSTORE PUSH1 0x11 PUSH1 0x4 MSTORE PUSH1 0x24 PUSH0 REVERT JUMPDEST PUSH0 PUSH2 0x1076 DUP3 PUSH2 0x8EA JUMP JUMPDEST SWAP2 POP PUSH32 0xFFFFFFFFFFFFFFFFFFFFFFFFFFFFFFFFFFFFFFFFFFFFFFFFFFFFFFFFFFFFFFFF DUP3 SUB PUSH2 0x10A8 JUMPI PUSH2 0x10A7 PUSH2 0x103F JUMP JUMPDEST JUMPDEST PUSH1 0x1 DUP3 ADD SWAP1 POP SWAP2 SWAP1 POP JUMP JUMPDEST PUSH32 0x4F6E6C7920617574686F72697A656420756E697665727369746965732063616E PUSH0 DUP3 ADD MSTORE PUSH32 0x2061646420646174610000000000000000000000000000000000000000000000 PUSH1 0x20 DUP3 ADD MSTORE POP JUMP JUMPDEST PUSH0 PUSH2 0x110D PUSH1 0x29 DUP4 PUSH2 0x952 JUMP JUMPDEST SWAP2 POP PUSH2 0x1118 DUP3 PUSH2 0x10B3 JUMP JUMPDEST PUSH1 0x40 DUP3 ADD SWAP1 POP SWAP2 SWAP1 POP JUMP JUMPDEST PUSH0 PUSH1 0x20 DUP3 ADD SWAP1 POP DUP2 DUP2 SUB PUSH0 DUP4 ADD MSTORE PUSH2 0x113A DUP2 PUSH2 0x1101 JUMP JUMPDEST SWAP1 POP SWAP2 SWAP1 POP JUMP JUMPDEST PUSH0 DUP2 SWAP1 POP DUP2 PUSH0 MSTORE PUSH1 0x20 PUSH0 KECCAK256 SWAP1 POP SWAP2 SWAP1 POP JUMP JUMPDEST PUSH0 PUSH1 0x20 PUSH1 0x1F DUP4 ADD DIV SWAP1 POP SWAP2 SWAP1 POP JUMP JUMPDEST PUSH0 DUP3 DUP3 SHL SWAP1 POP SWAP3 SWAP2 POP POP JUMP JUMPDEST PUSH0 PUSH1 0x8 DUP4 MUL PUSH2 0x119D PUSH32 0xFFFFFFFFFFFFFFFFFFFFFFFFFFFFFFFFFFFFFFFFFFFFFFFFFFFFFFFFFFFFFFFF DUP3 PUSH2 0x1162 JUMP JUMPDEST PUSH2 0x11A7 DUP7 DUP4 PUSH2 0x1162 JUMP JUMPDEST SWAP6 POP DUP1 NOT DUP5 AND SWAP4 POP DUP1 DUP7 AND DUP5 OR SWAP3 POP POP POP SWAP4 SWAP3 POP POP POP JUMP JUMPDEST PUSH0 DUP2 SWAP1 POP SWAP2 SWAP1 POP JUMP JUMPDEST PUSH0 PUSH2 0x11E2 PUSH2 0x11DD PUSH2 0x11D8 DUP5 PUSH2 0x8EA JUMP JUMPDEST PUSH2 0x11BF JUMP JUMPDEST PUSH2 0x8EA JUMP JUMPDEST SWAP1 POP SWAP2 SWAP1 POP JUMP JUMPDEST PUSH0 DUP2 SWAP1 POP SWAP2 SWAP1 POP JUMP JUMPDEST PUSH2 0x11FB DUP4 PUSH2 0x11C8 JUMP JUMPDEST PUSH2 0x120F PUSH2 0x1207 DUP3 PUSH2 0x11E9 JUMP JUMPDEST DUP5 DUP5 SLOAD PUSH2 0x116E JUMP JUMPDEST DUP3 SSTORE POP POP POP POP JUMP JUMPDEST PUSH0 SWAP1 JUMP JUMPDEST PUSH2 0x1223 PUSH2 0x1217 JUMP JUMPDEST PUSH2 0x122E DUP2 DUP5 DUP5 PUSH2 0x11F2 JUMP JUMPDEST POP POP POP JUMP JUMPDEST JUMPDEST DUP2 DUP2 LT ISZERO PUSH2 0x1251 JUMPI PUSH2 0x1246 PUSH0 DUP3 PUSH2 0x121B JUMP JUMPDEST PUSH1 0x1 DUP2 ADD SWAP1 POP PUSH2 0x1234 JUMP JUMPDEST POP POP JUMP JUMPDEST PUSH1 0x1F DUP3 GT ISZERO PUSH2 0x1296 JUMPI PUSH2 0x1267 DUP2 PUSH2 0x1141 JUMP JUMPDEST PUSH2 0x1270 DUP5 PUSH2 0x1153 JUMP JUMPDEST DUP2 ADD PUSH1 0x20 DUP6 LT ISZERO PUSH2 0x127F JUMPI DUP2 SWAP1 POP JUMPDEST PUSH2 0x1293 PUSH2 0x128B DUP6 PUSH2 0x1153 JUMP JUMPDEST DUP4 ADD DUP3 PUSH2 0x1233 JUMP JUMPDEST POP POP JUMPDEST POP POP POP JUMP JUMPDEST PUSH0 DUP3 DUP3 SHR SWAP1 POP SWAP3 SWAP2 POP POP JUMP JUMPDEST PUSH0 PUSH2 0x12B6 PUSH0 NOT DUP5 PUSH1 0x8 MUL PUSH2 0x129B JUMP JUMPDEST NOT DUP1 DUP4 AND SWAP2 POP POP SWAP3 SWAP2 POP POP JUMP JUMPDEST PUSH0 PUSH2 0x12CE DUP4 DUP4 PUSH2 0x12A7 JUMP JUMPDEST SWAP2 POP DUP3 PUSH1 0x2 MUL DUP3 OR SWAP1 POP SWAP3 SWAP2 POP POP JUMP JUMPDEST PUSH2 0x12E7 DUP3 PUSH2 0x948 JUMP JUMPDEST PUSH8 0xFFFFFFFFFFFFFFFF DUP2 GT ISZERO PUSH2 0x1300 JUMPI PUSH2 0x12FF PUSH2 0xAB4 JUMP JUMPDEST JUMPDEST PUSH2 0x130A DUP3 SLOAD PUSH2 0xEC8 JUMP JUMPDEST PUSH2 0x1315 DUP3 DUP3 DUP6 PUSH2 0x1255 JUMP JUMPDEST PUSH0 PUSH1 0x20 SWAP1 POP PUSH1 0x1F DUP4 GT PUSH1 0x1 DUP2 EQ PUSH2 0x1346 JUMPI PUSH0 DUP5 ISZERO PUSH2 0x1334 JUMPI DUP3 DUP8 ADD MLOAD SWAP1 POP JUMPDEST PUSH2 0x133E DUP6 DUP3 PUSH2 0x12C3 JUMP JUMPDEST DUP7 SSTORE POP PUSH2 0x13A5 JUMP JUMPDEST PUSH1 0x1F NOT DUP5 AND PUSH2 0x1354 DUP7 PUSH2 0x1141 JUMP JUMPDEST PUSH0 JUMPDEST DUP3 DUP2 LT ISZERO PUSH2 0x137B JUMPI DUP5 DUP10 ADD MLOAD DUP3 SSTORE PUSH1 0x1 DUP3 ADD SWAP2 POP PUSH1 0x20 DUP6 ADD SWAP5 POP PUSH1 0x20 DUP2 ADD SWAP1 POP PUSH2 0x1356 JUMP JUMPDEST DUP7 DUP4 LT ISZERO PUSH2 0x1398 JUMPI DUP5 DUP10 ADD MLOAD PUSH2 0x1394 PUSH1 0x1F DUP10 AND DUP3 PUSH2 0x12A7 JUMP JUMPDEST DUP4 SSTORE POP JUMPDEST PUSH1 0x1 PUSH1 0x2 DUP9 MUL ADD DUP9 SSTORE POP POP POP JUMPDEST POP POP POP POP POP POP JUMP JUMPDEST PUSH0 DUP2 SWAP1 POP SWAP3 SWAP2 POP POP JUMP JUMPDEST PUSH0 PUSH2 0x13C1 DUP3 PUSH2 0x948 JUMP JUMPDEST PUSH2 0x13CB DUP2 DUP6 PUSH2 0x13AD JUMP JUMPDEST SWAP4 POP PUSH2 0x13DB DUP2 DUP6 PUSH1 0x20 DUP7 ADD PUSH2 0x962 JUMP JUMPDEST DUP1 DUP5 ADD SWAP2 POP POP SWAP3 SWAP2 POP POP JUMP JUMPDEST PUSH0 PUSH2 0x13F2 DUP3 DUP5 PUSH2 0x13B7 JUMP JUMPDEST SWAP2 POP DUP2 SWAP1 POP SWAP3 SWAP2 POP POP JUMP JUMPDEST PUSH0 PUSH1 0x40 DUP3 ADD SWAP1 POP DUP2 DUP2 SUB PUSH0 DUP4 ADD MSTORE PUSH2 0x1415 DUP2 DUP6 PUSH2 0x980 JUMP JUMPDEST SWAP1 POP PUSH2 0x1424 PUSH1 0x20 DUP4 ADD DUP5 PUSH2 0x9B8 JUMP JUMPDEST SWAP4 SWAP3 POP POP POP JUMP INVALID LOG2 PUSH5 0x6970667358 0x22 SLT KECCAK256 0xC5 0xA9 0xE1 0xC1 0xC0 0xE7 0xE3 0xD1 BYTE PUSH22 0xC8FFDE4935625ECB920C4D20DD84F64639FC74470351 PUSH5 0x736F6C6343 STOP ADDMOD BYTE STOP CALLER "
		},
		"gasEstimates": {
			"creation": {
				"codeDepositCost": "1043400",
				"executionCost": "49703",
				"totalCost": "1093103"
			},
			"external": {
				"achievements(uint256)": "infinite",
				"addAchievement(string,string,uint256)": "infinite",
				"addUniversity(address)": "26969",
				"admin()": "2593",
				"getAchievementsByStudent(string)": "infinite",
				"universities(address)": "2899"
			}
		},
		"methodIdentifiers": {
			"achievements(uint256)": "27aed72e",
			"addAchievement(string,string,uint256)": "c0a64a80",
			"addUniversity(address)": "39bdf2a1",
			"admin()": "f851a440",
			"getAchievementsByStudent(string)": "875f5449",
			"universities(address)": "f0995560"
		}
	},
	"abi": [
		{
			"inputs": [],
			"stateMutability": "nonpayable",
			"type": "constructor"
		},
		{
			"anonymous": false,
			"inputs": [
				{
					"indexed": true,
					"internalType": "string",
					"name": "studentId",
					"type": "string"
				},
				{
					"indexed": false,
					"internalType": "string",
					"name": "courseName",
					"type": "string"
				},
				{
					"indexed": false,
					"internalType": "uint256",
					"name": "grade",
					"type": "uint256"
				}
			],
			"name": "AchievementAdded",
			"type": "event"
		},
		{
			"inputs": [
				{
					"internalType": "uint256",
					"name": "",
					"type": "uint256"
				}
			],
			"name": "achievements",
			"outputs": [
				{
					"internalType": "string",
					"name": "studentId",
					"type": "string"
				},
				{
					"internalType": "string",
					"name": "courseName",
					"type": "string"
				},
				{
					"internalType": "uint256",
					"name": "grade",
					"type": "uint256"
				},
				{
					"internalType": "address",
					"name": "university",
					"type": "address"
				}
			],
			"stateMutability": "view",
			"type": "function"
		},
		{
			"inputs": [
				{
					"internalType": "string",
					"name": "_studentId",
					"type": "string"
				},
				{
					"internalType": "string",
					"name": "_courseName",
					"type": "string"
				},
				{
					"internalType": "uint256",
					"name": "_grade",
					"type": "uint256"
				}
			],
			"name": "addAchievement",
			"outputs": [],
			"stateMutability": "nonpayable",
			"type": "function"
		},
		{
			"inputs": [
				{
					"internalType": "address",
					"name": "_university",
					"type": "address"
				}
			],
			"name": "addUniversity",
			"outputs": [],
			"stateMutability": "nonpayable",
			"type": "function"
		},
		{
			"inputs": [],
			"name": "admin",
			"outputs": [
				{
					"internalType": "address",
					"name": "",
					"type": "address"
				}
			],
			"stateMutability": "view",
			"type": "function"
		},
		{
			"inputs": [
				{
					"internalType": "string",
					"name": "_studentId",
					"type": "string"
				}
			],
			"name": "getAchievementsByStudent",
			"outputs": [
				{
					"components": [
						{
							"internalType": "string",
							"name": "studentId",
							"type": "string"
						},
						{
							"internalType": "string",
							"name": "courseName",
							"type": "string"
						},
						{
							"internalType": "uint256",
							"name": "grade",
							"type": "uint256"
						},
						{
							"internalType": "address",
							"name": "university",
							"type": "address"
						}
					],
					"internalType": "struct EduChain.Achievement[]",
					"name": "",
					"type": "tuple[]"
				}
			],
			"stateMutability": "view",
			"type": "function"
		},
		{
			"inputs": [
				{
					"internalType": "address",
					"name": "",
					"type": "address"
				}
			],
			"name": "universities",
			"outputs": [
				{
					"internalType": "bool",
					"name": "",
					"type": "bool"
				}
			],
			"stateMutability": "view",
			"type": "function"
		}
	]
}